:100000000C943E000C9448000C9448000C9448005A
:100010000C9448000C9448000C9448000C94480040
:100020000C9448000C9448000C9448000C94480030
:100030000C9448000C9448000C9448000C94480020
:100040000C9448000C9448000C9448000C94480010
:100050000C9448000C9448000C9448000C94480000
:100060000C9448000C9448000C9448000C944800F0
:100070000C9448000C9448000C94480011241FBEB6
:10008000CFEFD8E0DEBFCDBF0E9481010C94FE030C
:100090000C94000020E030E0281739074CF4EFEC16
:1000A000F7E03197F1F700C000002F5F3F4FF4CF2A
:1000B000089520E030E0281739073CF442E04A95E3
:1000C000F1F700C02F5F3F4FF6CF089508952F92AC
:1000D0003F924F925F926F927F928F929F92AF92D8
:1000E000BF92CF92DF92EF92FF920F931F93CF9325
:1000F000DF9300D000D0CDB7DEB74B015C01290102
:100100003A01C801B70120E432E44FE050E00E9418
:10011000C20361E070E080E090E00E94C2032983A6
:100120003A834B835C83A8EEB3E0A30192010E9463
:10013000E40329813A814B815C810E94C203290139
:100140003A01C501B40124E630E040E050E00E94ED
:10015000C20369817A818B819C810E94B2034B0129
:100160005C01C12CD12C760111E029803A80261A3D
:10017000370A4C145D046E047F0471F01BB9C4018E
:100180000E9459001BB8C1010E9459008FEFC81A84
:10019000D80AE80AF80AEDCF0F900F900F900F9051
:1001A000DF91CF911F910F91FF90EF90DF90CF9053
:1001B000BF90AF909F908F907F906F905F904F9087
:1001C0003F902F9008954F925F926F927F928F92FF
:1001D0009F92AF92BF92CF92DF92EF92FF920F93D6
:1001E0001F93CF93DF93CDB7DEB728970FB6F89460
:1001F000DEBF0FBECDBF6D837E838F8398872901BD
:100200003A0147015801A801970160E070E080E8D9
:100210009FE30E940F0220E030E04AE754E40E948E
:1002200045036B017C01C301B2010E94B702A50125
:1002300094010E94450320E030E04AE754E40E9424
:100240000F020E94880269837A838B839C832D81AD
:100250003E814F815885C701B6010E94450320E0C9
:1002600030E048EC52E40E940F022B013C01812C4B
:10027000912C540111E089819A81AB81BC8188164F
:100280009906AA06BB0631F11BB920E030E04AE727
:1002900054E4C301B2010E9445030E948102CB01D4
:1002A0000E9459001BB8A3019201C701B6010E9428
:1002B000A20120E030E04AE754E40E9445030E9496
:1002C0008102CB010E9459009FEF891A990AA90A5D
:1002D000B90AD1CF28960FB6F894DEBF0FBECDBFB6
:1002E000DF91CF911F910F91FF90EF90DF90CF9012
:1002F000BF90AF909F908F907F906F905F904F9046
:100300000895CF92DF92EF92FF920F931F938FEF9A
:100310008AB9CC24C394D12CE12CF12C00E712E44F
:1003200020ED37E040E050E060E070E0CB010E945B
:10033000E30080E090E01F910F91FF90EF90DF903D
:10034000CF9008955058BB27AA270E94BA010C9459
:100350000B030E94FD0238F00E94040320F039F4E0
:100360009F3F19F426F40C94FA020EF4E095E7FB93
:100370000C94F402E92F0E941C0358F3BA17620789
:1003800073078407950720F079F4A6F50C943E03D3
:100390000EF4E0950B2EBA2FA02D0B01B9019001A0
:1003A0000C01CA01A0011124FF27591B99F0593FE4
:1003B00050F4503E68F11A16F040A22F232F342F2C
:1003C0004427585FF3CF469537952795A795F0407A
:1003D0005395C9F77EF41F16BA0B620B730B840B8F
:1003E000BAF09150A1F0FF0FBB1F661F771F881F47
:1003F000C2F70EC0BA0F621F731F841F48F487959F
:1004000077956795B795F7959E3F08F0B0CF939590
:10041000880F08F09927EE0F9795879508950E9409
:1004200023020C940B030E94040358F00E94FD0267
:1004300040F029F45F3F29F00C94F40251110C9420
:100440003F030C94FA020E941C0368F39923B1F352
:10045000552391F3951B550BBB27AA2762177307EA
:10046000840738F09F5F5F4F220F331F441FAA1F7E
:10047000A9F335D00E2E3AF0E0E832D0915050403A
:10048000E695001CCAF72BD0FE2F29D0660F771FE8
:10049000881FBB1F261737074807AB07B0E809F0CE
:1004A000BB0B802DBF01FF2793585F4F3AF09E3F53
:1004B000510578F00C94F4020C943F035F3FE4F391
:1004C000983ED4F3869577956795B795F7959F5F96
:1004D000C9F7880F911D9695879597F90895E1E0E2
:1004E000660F771F881FBB1F621773078407BA0741
:1004F00020F0621B730B840BBA0BEE1F88F7E0959C
:1005000008950E9488026894B1110C943F030895E5
:100510000E94240388F09F5798F0B92F9927B7516C
:10052000B0F0E1F0660F771F881F991F1AF0BA9597
:10053000C9F714C0B13091F00E943E03B1E00895B4
:100540000C943E03672F782F8827B85F39F0B93FA6
:10055000CCF3869577956795B395D9F73EF490954A
:100560008095709561957F4F8F4F9F4F0895E894C8
:1005700009C097FB3EF490958095709561957F4FEB
:100580008F4F9F4F9923A9F0F92F96E9BB27939599
:10059000F695879577956795B795F111F8CFFAF4A9
:1005A000BB0F11F460FF1BC06F5F7F4F8F4F9F4FDA
:1005B00016C0882311F096E911C0772321F09EE838
:1005C000872F762F05C0662371F096E8862F70E09E
:1005D00060E02AF09A95660F771F881FDAF7880F78
:1005E0009695879597F9089597F99F6780E870E049
:1005F00060E008959FEF80EC089500240A94161699
:10060000170618060906089500240A941216130600
:10061000140605060895092E0394000C11F488238E
:1006200052F0BB0F40F4BF2B11F460FF04C06F5FAA
:100630007F4F8F4F9F4F089557FD9058440F551F80
:1006400059F05F3F71F04795880F97FB991F61F054
:100650009F3F79F087950895121613061406551FCB
:10066000F2CF4695F1DF08C0161617061806991F37
:10067000F1CF86957105610508940895E894BB272C
:1006800066277727CB0197F908950E9458030C94A9
:100690000B030E94FD0238F00E94040320F0952312
:1006A00011F00C94F4020C94FA0211240C943F0300
:1006B0000E941C0370F3959FC1F3950F50E0551FE6
:1006C000629FF001729FBB27F00DB11D639FAA27A7
:1006D000F00DB11DAA1F649F6627B00DA11D661FF6
:1006E000829F2227B00DA11D621F739FB00DA11D17
:1006F000621F839FA00D611D221F749F3327A00DD1
:10070000611D231F849F600D211D822F762F6A2F6C
:1007100011249F5750409AF0F1F088234AF0EE0FD1
:10072000FF1FBB1F661F771F881F91505040A9F7FE
:100730009E3F510580F00C94F4020C943F035F3F00
:10074000E4F3983ED4F3869577956795B795F7953A
:10075000E7959F5FC1F7FE2B880F911D96958795B2
:1007600097F90895DB018F939F930E94E403BF9153
:10077000AF91A29F800D911DA39F900DB29F900DF0
:1007800011240895A1E21A2EAA1BBB1BFD010DC066
:10079000AA1FBB1FEE1FFF1FA217B307E407F50731
:1007A00020F0A21BB30BE40BF50B661F771F881F0D
:1007B000991F1A9469F760957095809590959B01A3
:1007C000AC01BD01CF0108950E94EF03A59F900DDC
:1007D000B49F900DA49F800D911D11240895A29F98
:1007E000B001B39FC001A39F700D811D1124911D05
:1007F000B29F700D811D1124911D0895F894FFCFB3
:00000001FF
