:100000000C943E000C9450000C9450000C94500042
:100010000C9450000C9450000C9450000C94500020
:100020000C9450000C9450000C9450000C94500010
:100030000C9450000C9450000C9450000C94500000
:100040000C9450000C9450000C9450000C945000F0
:100050000C9450000C9450000C9450000C945000E0
:100060000C9450000C9450000C9450000C945000D0
:100070000C9450000C9450000C94500011241FBE9E
:10008000CFEFD8E0DEBFCDBF21E0A0E0B1E001C0FE
:100090001D92A230B207E1F70E947D000C94AA00E5
:1000A0000C940000F8948FEF84B98AB9E89AE9E6D5
:1000B000F0E0808181608083808182608083789499
:1000C000089590E0909389008093880090938B002E
:1000D00080938A00E0E8F0E0808181608083808105
:1000E00080688083808180628083E1E8F0E08081A5
:1000F0008260808310928200089510928500109291
:1001000084000E94520086E90E9461002FEF83ED77
:1001100090E3215080409040E1F700C000008FEF55
:100120000E9461002FEF83ED90E3215080409040CA
:10013000E1F700C0000080E00E9461002FEF83ED36
:1001400090E3215080409040E1F700C0000080E043
:0801500090E00895F894FFCF40
:00000001FF
