:100000000C943E000C9448000C9448000C9448005A
:100010000C9448000C9448000C9448000C94480040
:100020000C9448000C9448000C9448000C94480030
:100030000C9448000C9448000C9448000C94480020
:100040000C9448000C9448000C9448000C94480010
:100050000C9448000C9448000C9448000C94480000
:100060000C9448000C9448000C9448000C944800F0
:100070000C9448000C9448000C94480011241FBEB6
:10008000CFEFD8E0DEBFCDBF0E9459000C94F9003D
:100090000C94000020E030E0281739074CF4EFEC16
:1000A000F7E03197F1F700C000002F5F3F4FF4CF2A
:1000B00008953F924F925F926F927F928F929F929C
:1000C000AF92BF92CF92DF92EF92FF920F931F9366
:1000D000CF93DF938FEF84B981E085B9CCE2D1E093
:1000E000C12CD12C760184E6882E912CA12CB12C28
:1000F0000AE010E033243394AAE0B0E0A5019401B3
:100100000E94DF0024E630E040E050E00E94BD00A5
:1001100029013A0135B8C9010E944A0015B8C80141
:10012000841995090E944A008FEFC81AD80AE80A74
:10013000F80A83E0C816D104E104F10441F481E037
:10014000881A9108A108B108C12CD12C76012197F9
:1001500099F680E090E0DF91CF911F910F91FF9091
:10016000EF90DF90CF90BF90AF909F908F907F9057
:100170006F905F904F903F900895A1E21A2EAA1BB6
:10018000BB1BFD010DC0AA1FBB1FEE1FFF1FA21747
:10019000B307E407F50720F0A21BB30BE40BF50B44
:1001A000661F771F881F991F1A9469F760957095CD
:1001B000809590959B01AC01BD01CF0108950E94EF
:1001C000EA00A59F900DB49F900DA49F800D911DF6
:1001D00011240895A29FB001B39FC001A39F700D89
:1001E000811D1124911DB29F700D811D1124911D3F
:0601F0000895F894FFCF12
:00000001FF
