:100000000C943E000C9448000C9448000C9448005A
:100010000C9448000C9448000C9448000C94480040
:100020000C9448000C9448000C9448000C94480030
:100030000C9448000C9448000C9448000C94480020
:100040000C9448000C9448000C9448000C94480010
:100050000C9448000C9448000C9448000C94480000
:100060000C9448000C9448000C9448000C944800F0
:100070000C9448000C9448000C94480011241FBEB6
:10008000CFEFD8E0DEBFCDBF0E9489010C94680499
:100090000C94000020E030E0281739074CF4EFEC16
:1000A000F7E03197F1F700C000002F5F3F4FF4CF2A
:1000B000089520E030E0281739073CF442E04A95E3
:1000C000F1F700C02F5F3F4FF6CF089508954F928C
:1000D0005F926F927F928F929F92AF92BF92CF92D8
:1000E000DF92EF92FF920F931F93CF93DF9300D095
:1000F00000D0CDB7DEB72B013C0149015A0161E0C8
:1001000070E080E090E0A80197010E942C04298310
:100110003A834B835C83A8019701C501B4010E9417
:100120001C0428EE33E040E050E00E942C0449011A
:100130005A01C301B20124E630E040E050E00E94E1
:100140002C0488EE93E0289FB001299F700D389F02
:10015000700D112409811A81609FA001619F500DCB
:10016000709F500D1124489F6001499FD00C589FEB
:10017000D00C1124052E000C660B770B09811A8117
:100180002B813C81041B150B260B370B089F70013C
:10019000099FF00C189FF00C1124412C512C3201B6
:1001A00011E084149504A604B70471F01BB9C601CC
:1001B0000E9459001BB8C7010E9459002FEF421A34
:1001C000520A620A720AEDCF0F900F900F900F90B3
:1001D000DF91CF911F910F91FF90EF90DF90CF9023
:1001E000BF90AF909F908F907F906F905F904F9057
:1001F00008954F925F926F927F928F929F92AF92EB
:10020000BF92CF92DF92EF92FF920F931F93CF9303
:10021000DF9300D000D0CDB7DEB729013A01470106
:10022000580161E070E080E090E0A80197010E9431
:100230002C04A8EEB3E00E944E040E9421036B013F
:100240007C01A5019401C301B2010E941C0428EEA7
:1002500033E040E050E00E942C0429833A834B8332
:100260005C8320E030E0A901C701B6010E94AF0322
:1002700020E030E048EC52E40E9479024B015C013E
:10028000412C512C320101E012E089819A81AB812D
:10029000BC81481659066A067B0631F10BB920E08D
:1002A00030E04AE754E4C501B4010E94AF030E9464
:1002B000EB02CB010E9459001BB9A5019401C701B3
:1002C000B6010E940C0220E030E04AE754E40E94AC
:1002D000AF030E94EB02CB010E9459009FEF491A25
:1002E000590A690A790AD1CF0F900F900F900F9099
:1002F000DF91CF911F910F91FF90EF90DF90CF9002
:10030000BF90AF909F908F907F906F905F904F9035
:1003100008951F93CF93DF938FEF8AB9C8E7D0E09A
:1003200011E01BB984E090E00E944A001BB88DE008
:1003300090E00E944A002197A1F7C8E7D0E011E0C1
:100340001BB988E090E00E944A001BB889E090E069
:100350000E944A002197A1F7C8E7D0E011E01BB93D
:100360008CE090E00E944A001BB885E090E00E947B
:100370004A002197A1F7C8E7D0E011E01BB981E15D
:1003800090E00E944A001BB880E090E00E944A0082
:100390002197A1F7CBE9D2E011E01BB980E090E012
:1003A0000E944A001BB883E090E00E944A00219717
:1003B000A1F7CBE9D2E011E01BB981E090E00E9407
:1003C0004A001BB882E090E00E944A002197A1F702
:1003D000CBE9D2E011E01BB982E090E00E944A0034
:1003E0001BB881E090E00E944A002197A1F7CBE979
:1003F000D2E011E01BB983E090E00E944A001BB8F4
:1004000080E090E00E944A002197A1F780E090E010
:10041000DF91CF911F9108955058BB27AA270E94C2
:1004200024020C9475030E94670338F00E946E0347
:1004300020F039F49F3F19F426F40C9464030EF471
:10044000E095E7FB0C945E03E92F0E94860358F3C6
:10045000BA17620773078407950720F079F4A6F5A9
:100460000C94A8030EF4E0950B2EBA2FA02D0B01CF
:10047000B90190010C01CA01A0011124FF27591BE9
:1004800099F0593F50F4503E68F11A16F040A22FEF
:10049000232F342F4427585FF3CF46953795279560
:1004A000A795F0405395C9F77EF41F16BA0B620B5F
:1004B000730B840BBAF09150A1F0FF0FBB1F661FA6
:1004C000771F881FC2F70EC0BA0F621F731F841FE9
:1004D00048F4879577956795B795F7959E3F08F00F
:1004E000B0CF9395880F08F09927EE0F97958795D1
:1004F00008950E948D020C9475030E946E0358F0BB
:100500000E94670340F029F45F3F29F00C945E03DA
:1005100051110C94A9030C9464030E94860368F3A0
:100520009923B1F3552391F3951B550BBB27AA27AC
:1005300062177307840738F09F5F5F4F220F331FE6
:10054000441FAA1FA9F335D00E2E3AF0E0E832D0AE
:1005500091505040E695001CCAF72BD0FE2F29D0B1
:10056000660F771F881FBB1F261737074807AB0783
:10057000B0E809F0BB0B802DBF01FF2793585F4FF8
:100580003AF09E3F510578F00C945E030C94A90359
:100590005F3FE4F3983ED4F3869577956795B795DA
:1005A000F7959F5FC9F7880F911D9695879597F9E5
:1005B0000895E1E0660F771F881FBB1F621773075E
:1005C0008407BA0720F0621B730B840BBA0BEE1F73
:1005D00088F7E09508950E94F2026894B1110C9496
:1005E000A90308950E948E0388F09F5798F0B92FB1
:1005F0009927B751B0F0E1F0660F771F881F991F58
:100600001AF0BA95C9F714C0B13091F00E94A8034E
:10061000B1E008950C94A803672F782F8827B85F5E
:1006200039F0B93FCCF3869577956795B395D9F7AF
:100630003EF490958095709561957F4F8F4F9F4FB9
:100640000895E89409C097FB3EF4909580957095C5
:1006500061957F4F8F4F9F4F9923A9F0F92F96E90E
:10066000BB279395F695879577956795B795F11183
:10067000F8CFFAF4BB0F11F460FF1BC06F5F7F4F20
:100680008F4F9F4F16C0882311F096E911C0772332
:1006900021F09EE8872F762F05C0662371F096E83B
:1006A000862F70E060E02AF09A95660F771F881F0A
:1006B000DAF7880F9695879597F9089597F99F67C8
:1006C00080E870E060E008959FEF80EC08950024DA
:1006D0000A941616170618060906089500240A94A7
:1006E00012161306140605060895092E0394000C2D
:1006F00011F4882352F0BB0F40F4BF2B11F460FFBC
:1007000004C06F5F7F4F8F4F9F4F089557FD9058E4
:10071000440F551F59F05F3F71F04795880F97FBC5
:10072000991F61F09F3F79F087950895121613067F
:100730001406551FF2CF4695F1DF08C016161706AE
:100740001806991FF1CF86957105610508940895E3
:10075000E894BB2766277727CB0197F908950E9475
:10076000C2030C9475030E94670338F00E946E0365
:1007700020F0952311F00C945E030C946403112473
:100780000C94A9030E94860370F3959FC1F3950F03
:1007900050E0551F629FF001729FBB27F00DB11D05
:1007A000639FAA27F00DB11DAA1F649F6627B00D95
:1007B000A11D661F829F2227B00DA11D621F739F7E
:1007C000B00DA11D621F839FA00D611D221F749F8C
:1007D0003327A00D611D231F849F600D211D822FD3
:1007E000762F6A2F11249F5750409AF0F1F08823FA
:1007F0004AF0EE0FFF1FBB1F661F771F881F915027
:100800005040A9F79E3F510580F00C945E030C9474
:10081000A9035F3FE4F3983ED4F3869577956795F7
:10082000B795F795E7959F5FC1F7FE2B880F911D50
:100830009695879597F90895DB018F939F930E9472
:100840004E04BF91AF91A29F800D911DA39F900D6B
:10085000B29F900D11240895A1E21A2EAA1BBB1B72
:10086000FD010DC0AA1FBB1FEE1FFF1FA217B3077C
:10087000E407F50720F0A21BB30BE40BF50B661F92
:10088000771F881F991F1A9469F760957095809556
:1008900090959B01AC01BD01CF0108950E945904C0
:1008A000A59F900DB49F900DA49F800D911D1124C4
:1008B0000895A29FB001B39FC001A39F700D811D39
:1008C0001124911DB29F700D811D1124911D089559
:0408D000F894FFCFCA
:00000001FF
