:100000000C943E000C9472000C9450000C94500020
:100010000C9450000C9450000C9450000C94500020
:100020000C9450000C9450000C9450000C94500010
:100030000C9450000C9463000C9450000C945000ED
:100040000C9450000C9450000C9450000C945000F0
:100050000C9450000C9450000C9450000C945000E0
:100060000C9450000C9450000C9450000C945000D0
:100070000C9450000C9450000C94500011241FBE9E
:10008000CFEFD8E0DEBFCDBF21E0A0E0B1E001C0FE
:100090001D92A330B207E1F70E94AF000C94E50077
:1000A0000C940000F8948FEF84B91AB8E89AE9E646
:1000B000F0E0808181608083808182608083109203
:1000C0000001789408951F920F920FB60F92112499
:1000D0008F9381E0809302018F910F900FBE0F905C
:1000E0001F9018951F920F920FB60F9211248F93A5
:1000F0009F938FE59AEE0197F1F700C0000081E031
:10010000809301019F918F910F900FBE0F901F90D0
:10011000189510920201109285001092840070933D
:10012000890060938800E0E8F0E08081808380812E
:1001300080838081808380818083E1E8F0E080811A
:10014000846080838081808380818160808310923D
:100150008200EFE6F0E08081826080830895109253
:1001600001010E94520082E085B92FEF8DE399E4EE
:10017000215080409040E1F700C0000081E085B947
:100180002FEF80E792E0215080409040E1F700C0DF
:10019000000015B81092010160E072E18AE790E07A
:1001A0000E94890080910201813009F485B9809113
:1001B00002018823B9F380910101882399F382E039
:0E01C00085B9F89480E090E00895F894FFCFA0
:00000001FF
