:100000000C943E000C9460000C9450000C94500032
:100010000C9450000C9450000C9450000C94500020
:100020000C9450000C9450000C9450000C94500010
:100030000C9450000C9450000C9450000C94500000
:100040000C9450000C9450000C9450000C945000F0
:100050000C9450000C9450000C9450000C945000E0
:100060000C9450000C9450000C9450000C945000D0
:100070000C9450000C9450000C94500011241FBE9E
:10008000CFEFD8E0DEBFCDBF21E0A0E0B1E001C0FE
:100090001D92A130B207E1F70E94AC000C94C90098
:1000A0000C940000F894109200018FEF84B91AB8F4
:1000B000E89AE9E6F0E08081816080837894089591
:1000C0001F920F920FB60F9211248F939F938FE57B
:1000D0009AEE0197F1F700C00000809100018111B4
:1000E0000BC081E080930001E09A9F918F910F9067
:1000F0000FBE0F901F90189580910001813011F470
:1001000082E0F0CF80910001823011F483E0EACFE9
:1001100080910001833011F484E0E4CF80910001EC
:10012000843011F485E0DECF809100018530E1F666
:1001300010920001D9CF81E085B98FE19EE401974B
:10014000F1F700C0000082E085B98FE19EE40197DD
:10015000F1F700C0000008950E945200C1E0D2E013
:1001600080910001823079F038F4882371F0813079
:10017000B9F70E949B00F4CF843049F030F085300D
:1001800079F7D5B9EDCF85B9EBCFC5B9E9CF15B8BA
:06019000E7CFF894FFCF59
:00000001FF
