:100000000C943E000C9453000C9453000C94530039
:100010000C9453000C9453000C9453000C94530014
:100020000C9453000C9453000C9453000C94530004
:100030000C9453000C9453000C9453000C945300F4
:100040000C9453000C9453000C9453000C945300E4
:100050000C9453000C9453000C9453000C945300D4
:100060000C9453000C9453000C9453000C945300C4
:100070000C9453000C9453000C94530011241FBE95
:10008000CFEFD8E0DEBFCDBF11E0A0E0B1E0E4EB00
:10009000F4E002C005900D92A631B107D9F70E9495
:1000A00020020C9458020C9400001092C5008FECB2
:1000B0008093C400E0ECF0E0808180648083E1EC18
:1000C000F0E0808188608083808180618083E2ECC1
:1000D000F0E08081826080838081846080830895E5
:1000E0009091C00095FFFCCF8093C60008950895BD
:1000F00080EA809300011092B90080E28093B800FA
:10010000089520E8FC0120830C947800982F9370C8
:10011000891305C0880F806A8093000108958FEFCE
:10012000089594EA24E89093BC008091BC0087FF76
:10013000FCCF809100018093BB002093BC00809194
:10014000BC0087FFFCCF8091B900883161F784EA59
:100150008093BC008091BC0087FFFCCF80910001A0
:100160008093BB0084E88093BC008091BC0087FF33
:10017000FCCF7093BB0084E88093BC008091BC00EE
:1001800087FFFCCF6093BB0084E88093BC00809124
:10019000BC0087FFFCCF8091BC0087FFFCCF84EAC6
:1001A0008093BC008091BC0087FFFCCF8091000150
:1001B0008F5F8093BB0084E88093BC008091BC007B
:1001C00087FFFCCF84E88093BC008091BC0087FF50
:1001D000FCCF8091BB00FA01808384E98093BC004E
:1001E00080E0089594EA34E89093BC008091BC00CC
:1001F00087FFFCCF809100018093BB003093BC004F
:100200008091BC0087FFFCCF8091B900883161F7F5
:1002100084EA8093BC008091BC0087FFFCCF809172
:1002200000018093BB0084E88093BC008091BC00F7
:1002300087FFFCCF7093BB0084E88093BC00809163
:10024000BC0087FFFCCF6093BB0084E88093BC00B8
:100250008091BC0087FFFCCF84EA8093BC00809132
:10026000BC0087FFFCCF809100018F5F8093BB00B3
:1002700084E88093BC008091BC0087FFFCCFFA012A
:1002800084EC222371F0213009F484E88093BC00CF
:100290009091BC0097FFFCCF9091BB0091932150AF
:1002A000F0CF84E98093BC0080E0089594EA24E8CC
:1002B0009093BC008091BC0087FFFCCF809100012F
:1002C0008093BB002093BC008091BC0087FFFCCFD3
:1002D0008091B900883161F784EA8093BC008091F5
:1002E000BC0087FFFCCF809100018093BB0084E8B5
:1002F0008093BC008091BC0087FFFCCF7093BB0053
:1003000084E88093BC008091BC0087FFFCCF6093A1
:10031000BB0084E88093BC008091BC0087FFFCCFC9
:100320004093BB0084E88093BC008091BC0087FFB1
:10033000FCCF84E98093BC0080E00895FB01E20FCC
:10034000F11DDC012C9130E021503109262B372B97
:10035000E217F30710F0F90131968E2F861B24EA7D
:1003600034E82093BC009091BC0097FFFCCF9091A3
:1003700000019093BB003093BC009091BC0097FFAC
:10038000FCCF9091B900983161F794EA9093BC004A
:100390009091BC0097FFFCCF909100019093BB001F
:1003A00094E89093BC009091BC0097FFFCCF7093B1
:1003B000BB0094E89093BC009091BC0097FFFCCFE9
:1003C0006093BB0094E89093BC009091BC0097FFB1
:1003D000FCCFFA01982F24E8992359F031913093FA
:1003E000BB002093BC003091BC0037FFFCCF915084
:1003F000F3CF94E99093BC000895CF92DF92EF92EF
:10040000FF921F93CF93DF936C017A01122FEB01C0
:10041000212FA701BE01C6010E949E01282F30E0B6
:10042000C20FD31F181BE20EF31E1111F1CF80E093
:10043000DF91CF911F91FF90EF90DF90CF900895C3
:10044000EF92FF920F931F93CF93DF93CDB7DEB759
:1004500065970FB6F894DEBF0FBECDBF0E94550062
:1004600085E1E1E0F1E0DE01119601900D928A95BF
:10047000E1F710E0CE0101967C0100E0F7018191E7
:100480007F010E9470000F5F0431C1F71F5F1436B7
:1004900089F780E090E065960FB6F894DEBF0FBE56
:1004A000CDBFDF91CF911F910F91FF90EF900895F5
:0404B000F894FFCFEE
:1004B400A04C6520726F626F7420656E20494E46B1
:0604C400313939350A0050
:00000001FF
